S00F00006279676765726E2E7372656327
S11300000C9438000C9455000C9455000C94550035
S11300100C9455000C9455000C9455000C94550008
S11300200C9455000C9455000C9455000C945500F8
S11300300C9455000C9455000C9455000C945500E8
S11300400C9455000C94C1000C9455000C9455006C
S11300500C9455000C9455000C9455000C945500C8
S11300600C9455000C9455000C9455000C945500B8
S113007011241FBECFEFD4E0DEBFCDBF11E0A0E05E
S1130080B1E0E0EBFFE002C005900D92A233B107AE
S1130090D9F721E0A2E3B1E001C01D92A234B20776
S11300A0E1F70E946C000C94D6070C940000D09ADF
S11300B00895D89A81E090E09093330180933201BF
S11300C00895D898109233011092320108958091C6
S11300D032019091330108950E94570040E050E0AE
S11300E066E97AE480E895E20E9408010E94B6007D
S11300F086E091E00E94B0037894C1E2D1E068EE1A
S113010073E089E590E00E94B9002FEF8FEF9EE045
S1130110215080409040E1F700C000000E94670039
S11301209F938F93DF93CF930E949C0368EE73E0B9
S113013081E690E00E94B9009FEF2FEF8EE091508E
S113014020408040E1F700C000000E9467009F93B8
S11301508F93DF93CF930E949C038DB79EB708962D
S11301600FB6F8949EBF0FBE8DBFC9CF85E083BF85
S1130170089529B7226029BF9093370180933601EF
S113018008951F920F920FB60F9211242F933F934D
S11301904F935F936F937F938F939F93AF93BF938B
S11301A0EF93FF93809134019091350101969093E0
S11301B03501809334016AE070E00E942903892BA1
S11301C041F489B78D7F89BFE0913601F091370101
S11301D0099588B7826088BFFF91EF91BF91AF9175
S11301E09F918F917F916F915F914F913F912F914B
S11301F00F900FBE0F901F9018955D9BFECF8CB98A
S113020080E090E008955F9BFECF8CB190E008956C
S1130210CF92DF92EF92FF92CF93DF93EC01CB0169
S1130220BA0120E030E040E85DE30E94C6026B01C1
S11302307C01BE0180E090E00E9438029B01AC0189
S1130240C701B6010E94A40120E030E040E85FE36A
S11302500E943F010E940C0270BD69B988E18AB90D
S11302608EE880BD63E071E08DEF90E00E94510361
S1130270DF91CF91FF90EF90DF90CF900895505889
S1130280BB27AA270ED048C139D130F03ED120F087
S113029031F49F3F11F41EF42EC10EF4E095E7FBF8
S11302A024C1E92F4AD180F3BA1762077307840780
S11302B0950718F071F49EF562C10EF4E0950B2ECB
S11302C0BA2FA02D0B01B90190010C01CA01A001A4
S11302D01124FF27591B99F0593F50F4503E68F1FF
S11302E01A16F040A22F232F342F4427585FF3CF40
S11302F0469537952795A795F0405395C9F77EF411
S11303001F16BA0B620B730B840BBAF09150A1F059
S1130310FF0FBB1F661F771F881FC2F70EC0BA0FDF
S1130320621F731F841F48F4879577956795B79567
S1130330F7959E3F08F0B3CF9395880F08F099275F
S1130340EE0F9795879508950CD0E6C0DED040F067
S1130350D5D030F021F45F3F19F0C7C0511110C15E
S1130360CAC0EBD098F39923C9F35523B1F3951B75
S1130370550BBB27AA2762177307840738F09F5FC2
S11303805F4F220F331F441FAA1FA9F333D00E2E31
S11303903AF0E0E830D091505040E695001CCAF79E
S11303A029D0FE2F27D0660F771F881FBB1F261763
S11303B037074807AB07B0E809F0BB0B802DBF0136
S11303C0FF2793585F4F2AF09E3F510568F08DC078
S11303D0D7C05F3FECF3983EDCF38695779567953D
S11303E0B795F7959F5FC9F7880F911D96958795E7
S11303F097F90895E1E0660F771F881FBB1F621706
S113040073078407BA0720F0621B730B840BBA0BC3
S1130410EE1F88F7E095089598D088F09F5790F0E4
S1130420B92F9927B751A0F0D1F0660F771F881F15
S1130430991F1AF0BA95C9F712C0B13081F09FD054
S1130440B1E008959CC0672F782F8827B85F39F0F2
S1130450B93FCCF3869577956795B395D9F73EF474
S113046090958095709561957F4F8F4F9F4F08951C
S1130470E89409C097FB3EF490958095709561953A
S11304807F4F8F4F9F4F9923A9F0F92F96E9BB27F0
S11304909395F695879577956795B795F111F8CF6C
S11304A0FAF4BB0F11F460FF1BC06F5F7F4F8F4FD7
S11304B09F4F16C0882311F096E911C0772321F0CD
S11304C09EE8872F762F05C0662371F096E8862F65
S11304D070E060E02AF09A95660F771F881FDAF7BC
S11304E0880F9695879597F9089597F99F6780E8FF
S11304F070E060E008959FEF80EC089500240A9472
S11305001616170618060906089500240A941216EA
S11305101306140605060895092E0394000C11F41D
S1130520882352F0BB0F40F4BF2B11F460FF04C0CA
S11305306F5F7F4F8F4F9F4F089557FD9058440F23
S1130540551F59F05F3F71F04795880F97FB991F2E
S113055061F09F3F79F087950895121613061406EB
S1130560551FF2CF4695F1DF08C016161706180678
S1130570991FF1CF86957105610508940895E89453
S1130580BB2766277727CB0197F908950BD0C4CFF3
S1130590B5DF28F0BADF18F0952309F0A6CFABCF6A
S11305A01124EECFCADFA0F3959FD1F3950F50E04D
S11305B0551F629FF001729FBB27F00DB11D639F11
S11305C0AA27F00DB11DAA1F649F6627B00DA11DB7
S11305D0661F829F2227B00DA11D621F739FB00D5D
S11305E0A11D621F839FA00D611D221F749F3327CD
S11305F0A00D611D231F849F600D211D822F762F66
S11306006A2F11249F5750408AF0E1F088234AF062
S1130610EE0FFF1FBB1F661F771F881F91505040AE
S1130620A9F79E3F510570F060CFAACF5F3FECF36E
S1130630983EDCF3869577956795B795F795E7959A
S11306409F5FC1F7FE2B880F911D9695879597F9AB
S1130650089597FB072E16F4009407D077FD09D070
S11306600E943D0307FC05D03EF4909581959F4F71
S11306700895709561957F4F0895AA1BBB1B51E1A6
S113068007C0AA1FBB1FA617B70710F0A61BB70BFE
S1130690881F991F5A95A9F780959095BC01CD01A3
S11306A008950F931F93CF93DF93EC018B01009771
S11306B031F46115710519F480E090E038C06EE002
S11306C070E081E090E00E94AF05FC010097A1F387
S11306D080E883830115110571F01387028781E88F
S11306E083838091380190913901892B21F4F0930F
S11306F03901E09338012097C9F0D187C0878381FD
S11307008260838380913A0190913B01892B71F43B
S1130710F0933B01E0933A0180913C0190913D01BB
S1130720892B21F4F0933D01E0933C01CF01DF914B
S1130730CF911F910F910895A0E0B0E0E2EAF3E0B9
S11307400C94AF07FE01359661917191AF018091D0
S11307503A0190913B010E94DD03E2E00C94CB0747
S11307600F931F93CF93DF93E0913A01F0913B01F4
S1130770238121FF1BC0EC0100E010E0899160910E
S11307803A0170913B01DB011896ED91FC911997A8
S1130790882331F00995892B89F30FEF1FEFEECFF2
S11307A08AE00995892B11F4C80102C08FEF9FEFED
S11307B0DF91CF911F910F910895ACE0B0E0E3EE8B
S11307C0F3E00C949F077C016B018A01FC01178202
S11307D01682838181FFBDC1CE0101964C01F701D0
S11307E09381F60193FD859193FF81916F01882395
S11307F009F4ABC1853239F493FD859193FF81915E
S11308006F01853229F4B70190E00E940F07E7CF0A
S1130810512C312C20E02032A0F48B3269F030F4DA
S1130820803259F0833269F420612CC08D3239F062
S1130830803339F4216026C02260246023C02860FC
S113084021C027FD27C030ED380F3A3078F426FF59
S113085006C0FAE05F9E300D1124532E13C08AE0C7
S1130860389E300D1124332E20620CC08E3221F4B8
S113087026FD6BC1206406C08C3611F4206802C0CA
S1130880883641F4F60193FD859193FF81916F01C0
S11308908111C1CF982F9F7D9554933028F40C5F1C
S11308A01F4FFFE3F9830DC0833631F0833771F0B6
S11308B0833509F05BC022C0F801808189830E5F13
S11308C01F4F44244394512C540115C03801F2E0C5
S11308D06F0E711CF801A080B18026FF03C0652D46
S11308E070E002C06FEF7FEFC5012C870E94040700
S11308F02C0183012C852F77222E17C03801F2E0BA
S11309006F0E711CF801A080B18026FF03C0652D15
S113091070E002C06FEF7FEFC5012C870E94F206E2
S11309202C012C852068222E830123FC1BC0832DDF
S113093090E048165906B0F4B70180E290E00E94B6
S11309400F073A94F4CFF50127FC859127FE819196
S11309505F01B70190E00E940F0731103A94F1E073
S11309604F1A51084114510471F7E5C0843611F04F
S1130970893639F5F80127FF07C0608171818281CA
S113098093810C5F1F4F08C060817181882777FDB8
S11309908095982F0E5F1F4F2F76B22E97FF09C0B8
S11309A090958095709561957F4F8F4F9F4F2068EC
S11309B0B22E2AE030E0A4010E944107A82EA81814
S11309C044C0853729F42F7EB22E2AE030E025C0BA
S11309D0F22FF97FBF2E8F36C1F018F4883579F0E5
S11309E0B4C0803719F0883721F0AFC02F2F2061B1
S11309F0B22EB4FE0DC08B2D8460B82E09C024FF26
S1130A000AC09F2F9660B92E06C028E030E005C0CA
S1130A1020E130E002C020E132E0F801B7FE07C077
S1130A2060817181828193810C5F1F4F06C0608158
S1130A30718180E090E00E5F1F4FA4010E94410786
S1130A40A82EA818FB2DFF77BF2EB6FE0BC02B2DAA
S1130A502E7FA51450F4B4FE0AC0B2FC08C02B2D9E
S1130A602E7E05C07A2C2B2D03C07A2C01C0752C48
S1130A7024FF0DC0FE01EA0DF11D8081803311F4C5
S1130A80297E09C022FF06C07394739404C0822F88
S1130A90867809F0739423FD13C020FF06C05A2CF6
S1130AA0731418F4530C5718732C731468F4B701A7
S1130AB080E290E02C870E940F0773942C85F5CF79
S1130AC0731410F4371801C0312C24FF12C0B7017D
S1130AD080E390E02C870E940F072C8522FF17C02B
S1130AE021FF03C088E590E002C088E790E0B701E9
S1130AF00CC0822F867859F021FD02C080E201C02B
S1130B008BE227FD8DE2B70190E00E940F07A51448
S1130B1038F4B70180E390E00E940F075A94F7CFAE
S1130B20AA94F401EA0DF11D8081B70190E00E94BE
S1130B300F07A110F5CF332009F451CEB70180E29D
S1130B4090E00E940F073A94F6CFF70186819781CF
S1130B5002C08FEF9FEF2C96E2E10C94BB070F933A
S1130B601F93CF93DF93869F8001879F100D969FDD
S1130B70100D1124C8010E94CB05EC01009729F047
S1130B80A80160E070E00E94FD06CE01DF91CF91E4
S1130B901F910F910895CF93DF938230910510F444
S1130BA082E090E0E0914001F091410120E030E0EA
S1130BB0A0E0B0E0309739F14081518148175907DE
S1130BC0B8F04817590771F482819381109729F07E
S1130BD013969C938E9312972CC09093410180930B
S1130BE0400127C02115310531F04217530718F091
S1130BF0A901DB0101C0EF019A01BD01DF010280FF
S1130C00F381E02DD7CF21153105F9F0281B390BDD
S1130C102430310580F48A819B816115710521F0AE
S1130C20FB019383828304C090934101809340012C
S1130C30FE01329644C0FE01E20FF31F81939193AB
S1130C4022503109398328833AC020913E013091E2
S1130C503F01232B41F42091020130910301309391
S1130C603F0120933E0120910001309101012115A3
S1130C70310541F42DB73EB740910401509105016F
S1130C80241B350BE0913E01F0913F01E217F3077D
S1130C90A0F42E1B3F0B2817390778F0AC014E5FE8
S1130CA05F4F2417350748F04E0F5F1F50933F01E5
S1130CB040933E018193919302C0E0E0F0E0CF01C4
S1130CC0DF91CF910895CF93DF93009709F487C004
S1130CD0FC01329713821282C0914001D0914101EC
S1130CE0209781F420813181280F391F80913E01A2
S1130CF090913F018217930779F5F0933F01E093B8
S1130D003E016DC0DE0120E030E0AE17BF0750F4B5
S1130D1012964D915C9113979D014115510509F16E
S1130D20DA01F3CFB383A28340815181840F951FED
S1130D308A179B0771F48D919C911197840F951FCD
S1130D4002969183808312968D919C91139793833D
S1130D5082832115310529F4F0934101E093400188
S1130D603EC0D9011396FC93EE9312974D915D9179
S1130D70A40FB51FEA17FB0779F480819181840FD2
S1130D80951F0296D90111969C938E93828193812B
S1130D9013969C938E931297E0E0F0E08A819B81F6
S1130DA0009719F0FE01EC01F9CFCE0102962881DB
S1130DB03981820F931F20913E0130913F01281702
S1130DC0390769F4309729F41092410110924001D7
S1130DD002C013821282D0933F01C0933E01DF917F
S1130DE0CF910895FC010590615070400110D8F72F
S1130DF0809590958E0F9F1F0895DC0101C06D931F
S1130E0041505040E0F70895FC016150704001905A
S1130E100110D8F7809590958E0F9F1F08950F931A
S1130E201F93CF93DF93182F092FEB018B8181FD43
S1130E3003C08FEF9FEF20C082FF10C04E815F81FF
S1130E402C813D81421753077CF4E881F9819F018D
S1130E502F5F3F4F39832883108306C0E885F985C7
S1130E60812F0995892B29F72E813F812F5F3F4FD1
S1130E703F832E83812F902FDF91CF911F910F916C
S1130E800895FA01AA27283051F1203181F1E8941C
S1130E906F936E7F6E5F7F4F8F4F9F4FAF4FB1E069
S1130EA03ED0B4E03CD0670F781F891F9A1FA11D64
S1130EB0680F791F8A1F911DA11D6A0F711D811D65
S1130EC0911DA11D20D009F468943F912AE0269F2A
S1130ED011243019305D3193DEF6CF010895462F89
S1130EE04770405D4193B3E00FD0C9F7F6CF462F6A
S1130EF04F70405D4A3318F0495D31FD40524193D3
S1130F0002D0A9F7EACFB4E0A6959795879577958F
S1130F106795BA95C9F700976105710508959B0116
S1130F20AC010A2E06945795479537952795BA959F
S1130F30C9F7620F731F841F951FA01D08952F9278
S1130F403F924F925F926F927F928F929F92AF9255
S1130F50BF92CF92DF92EF92FF920F931F93CF93A2
S1130F60DF93CDB7DEB7CA1BDB0B0FB6F894DEBF39
S1130F700FBECDBF09942A88398848885F846E845F
S1130F807D848C849B84AA84B984C884DF80EE80A9
S1130F90FD800C811B81AA81B981CE0FD11D0FB6B2
S1130FA0F894DEBF0FBECDBFED010895F894FFCFD6
S1130FB00000420120002A2A2A2A2A53544152546A
S1130FC0494E472050524F4752414D2A2A2A2A2A35
S1130FD0004C4544207374617475733A2025640A87
S1050FE000000B
S9030000FC
