:100000000C9438000C9455000C9455000C94550039
:100010000C9455000C9455000C9455000C9455000C
:100020000C9455000C9455000C9455000C945500FC
:100030000C9455000C9455000C9455000C945500EC
:100040000C9455000C94C8000C9455000C94550069
:100050000C9455000C9455000C9455000C945500CC
:100060000C9455000C9455000C9455000C945500BC
:1000700011241FBECFEFD4E0DEBFCDBF11E0A0E062
:10008000B1E0E4EDFFE002C005900D92A835B107A4
:10009000D9F721E0A8E5B1E001C01D92A836B2076A
:1000A000E1F70E946C000C94E8070C940000D09AD1
:1000B0000895D89A81E090E0909359018093580177
:1000C0000895D8981092590110925801089580917E
:1000D00058019091590108950E94570040E050E066
:1000E00066E97AE480E895E20E941A010E94B40071
:1000F00086E091E00E94C20378940E9459000E9419
:1001000067009F938F9381E291E09F938F930E946A
:10011000AE032FEF8FEF9EE0215080409040E1F73B
:1001200000C0000068EE73E081E690E00E94B70036
:100130000F900F900F900F90C1E2D1E02FEF8FEF53
:100140009EE0215080409040E1F700C000000E94F6
:1001500067009F938F93DF93CF930E94AE030F901E
:100160000F900F900F90EACF85E083BF0895CF9353
:10017000DF93EC0181E391E00E94C20389B78260C2
:1001800089BFD0935D01C0935C01DF91CF91089549
:100190001F920F920FB60F9211242F933F934F93FC
:1001A0005F936F937F938F939F93AF93BF93EF93DF
:1001B000FF9320915A0130915B012F5F3F4F3093A5
:1001C0005B0120935A01C90164E670E00E943B0381
:1001D000892BA1F43F932F9380E491E09F938F9319
:1001E0000E94AE0389B78D7F89BFE0915C01F091D9
:1001F0005D0109950F900F900F900F90FF91EF9177
:10020000BF91AF919F918F917F916F915F914F912E
:100210003F912F910F900FBE0F901F9018955D9BEF
:10022000FECF8CB980E090E008955F9BFECF8CB14B
:1002300090E00895CF92DF92EF92FF92CF93DF93F9
:10024000EC01CB01BA0120E030E040E85DE30E9420
:10025000D8026B017C01BE0180E090E00E944A025E
:100260009B01AC01C701B6010E94B60120E030E05D
:1002700040E85FE30E9451010E941E0270BD69B90F
:1002800088E18AB98EE880BD65E171E08FE091E098
:100290000E946303DF91CF91FF90EF90DF90CF90AA
:1002A00008955058BB27AA270ED048C139D130F045
:1002B0003ED120F031F49F3F11F41EF42EC10EF414
:1002C000E095E7FB24C1E92F4AD180F3BA17620712
:1002D00073078407950718F071F49EF562C10EF458
:1002E000E0950B2EBA2FA02D0B01B90190010C0146
:1002F000CA01A0011124FF27591B99F0593F50F45E
:10030000503E68F11A16F040A22F232F342F4427B5
:10031000585FF3CF469537952795A795F0405395AD
:10032000C9F77EF41F16BA0B620B730B840BBAF07D
:100330009150A1F0FF0FBB1F661F771F881FC2F7E8
:100340000EC0BA0F621F731F841F48F487957795FC
:100350006795B795F7959E3F08F0B3CF9395880FB3
:1003600008F09927EE0F9795879508950CD0E6C071
:10037000DED040F0D5D030F021F45F3F19F0C7C097
:10038000511110C1CAC0EBD098F39923C9F355237A
:10039000B1F3951B550BBB27AA2762177307840778
:1003A00038F09F5F5F4F220F331F441FAA1FA9F32E
:1003B00033D00E2E3AF0E0E830D091505040E69520
:1003C000001CCAF729D0FE2F27D0660F771F881F81
:1003D000BB1F261737074807AB07B0E809F0BB0B70
:1003E000802DBF01FF2793585F4F2AF09E3F510594
:1003F00068F08DC0D7C05F3FECF3983EDCF3869584
:1004000077956795B795F7959F5FC9F7880F911D09
:100410009695879597F90895E1E0660F771F881FF5
:10042000BB1F621773078407BA0720F0621B730BA8
:10043000840BBA0BEE1F88F7E095089598D088F0EA
:100440009F5790F0B92F9927B751A0F0D1F0660FC0
:10045000771F881F991F1AF0BA95C9F712C0B130DB
:1004600081F09FD0B1E008959CC0672F782F882736
:10047000B85F39F0B93FCCF3869577956795B3951A
:10048000D9F73EF490958095709561957F4F8F4F89
:100490009F4F0895E89409C097FB3EF4909580958E
:1004A000709561957F4F8F4F9F4F9923A9F0F92F3A
:1004B00096E9BB279395F695879577956795B795B8
:1004C000F111F8CFFAF4BB0F11F460FF1BC06F5F9E
:1004D0007F4F8F4F9F4F16C0882311F096E911C0B0
:1004E000772321F09EE8872F762F05C0662371F0D1
:1004F00096E8862F70E060E02AF09A95660F771FE5
:10050000881FDAF7880F9695879597F9089597F9D8
:100510009F6780E870E060E008959FEF80EC0895A9
:1005200000240A94161617061806090608950024D2
:100530000A9412161306140605060895092E03944C
:10054000000C11F4882352F0BB0F40F4BF2B11F4C0
:1005500060FF04C06F5F7F4F8F4F9F4F089557FD1F
:100560009058440F551F59F05F3F71F04795880F21
:1005700097FB991F61F09F3F79F0879508951216B8
:1005800013061406551FF2CF4695F1DF08C0161664
:1005900017061806991FF1CF869571056105089415
:1005A0000895E894BB2766277727CB0197F908952C
:1005B0000BD0C4CFB5DF28F0BADF18F0952309F0CF
:1005C000A6CFABCF1124EECFCADFA0F3959FD1F316
:1005D000950F50E0551F629FF001729FBB27F00DF1
:1005E000B11D639FAA27F00DB11DAA1F649F662746
:1005F000B00DA11D661F829F2227B00DA11D621F95
:10060000739FB00DA11D621F839FA00D611D221F4E
:10061000749F3327A00D611D231F849F600D211D32
:10062000822F762F6A2F11249F5750408AF0E1F0D5
:1006300088234AF0EE0FFF1FBB1F661F771F881F1E
:1006400091505040A9F79E3F510570F060CFAACF5E
:100650005F3FECF3983EDCF3869577956795B79509
:10066000F795E7959F5FC1F7FE2B880F911D969533
:10067000879597F9089597FB072E16F4009407D0F5
:1006800077FD09D00E944F0307FC05D03EF49095FA
:1006900081959F4F0895709561957F4F0895AA1B8E
:1006A000BB1B51E107C0AA1FBB1FA617B70710F05D
:1006B000A61BB70B881F991F5A95A9F7809590958F
:1006C000BC01CD0108950F931F93CF93DF93EC01ED
:1006D0008B01009731F46115710519F480E090E009
:1006E00038C06EE070E081E090E00E94C105FC013E
:1006F0000097A1F380E883830115110571F013873A
:10070000028781E8838380915E0190915F01892B4C
:1007100021F4F0935F01E0935E012097C9F0D18747
:10072000C0878381826083838091600190916101A1
:10073000892B71F4F0936101E09360018091620173
:1007400090916301892B21F4F0936301E09362019E
:10075000CF01DF91CF911F910F910895A0E0B0E0FC
:10076000E4EBF3E00C94C107FE01359661917191C1
:10077000AF0180916001909161010E94EF03E2E07E
:100780000C94DD070F931F93CF93DF93E0916001EB
:10079000F0916101238121FF1BC0EC0100E010E01A
:1007A00089916091600170916101DB011896ED9172
:1007B000FC911997882331F00995892B89F30FEF64
:1007C0001FEFEECF8AE00995892B11F4C80102C012
:1007D0008FEF9FEFDF91CF911F910F910895ACE0C4
:1007E000B0E0E5EFF3E00C94B1077C016B018A0106
:1007F000FC0117821682838181FFBDC1CE01019663
:100800004C01F7019381F60193FD859193FF81914E
:100810006F01882309F4ABC1853239F493FD8591CA
:1008200093FF81916F01853229F4B70190E00E9416
:100830002107E7CF512C312C20E02032A0F48B325D
:1008400069F030F4803259F0833269F420612CC0B1
:100850008D3239F0803339F4216026C02260246063
:1008600023C0286021C027FD27C030ED380F3A3063
:1008700078F426FF06C0FAE05F9E300D1124532E57
:1008800013C08AE0389E300D1124332E20620CC034
:100890008E3221F426FD6BC1206406C08C3611F423
:1008A000206802C0883641F4F60193FD859193FFDC
:1008B00081916F018111C1CF982F9F7D9554933005
:1008C00028F40C5F1F4FFFE3F9830DC0833631F02E
:1008D000833771F0833509F05BC022C0F801808155
:1008E00089830E5F1F4F44244394512C540115C03B
:1008F0003801F2E06F0E711CF801A080B18026FF74
:1009000003C0652D70E002C06FEF7FEFC5012C873B
:100910000E9416072C0183012C852F77222E17C0E9
:100920003801F2E06F0E711CF801A080B18026FF43
:1009300003C0652D70E002C06FEF7FEFC5012C870B
:100940000E9404072C012C852068222E830123FCA1
:100950001BC0832D90E048165906B0F4B70180E221
:1009600090E00E9421073A94F4CFF50127FC85918D
:1009700027FE81915F01B70190E00E9421073110AD
:100980003A94F1E04F1A51084114510471F7E5C04F
:10099000843611F0893639F5F80127FF07C06081E8
:1009A0007181828193810C5F1F4F08C060817181CA
:1009B000882777FD8095982F0E5F1F4F2F76B22ED8
:1009C00097FF09C090958095709561957F4F8F4FE7
:1009D0009F4F2068B22E2AE030E0A4010E94530706
:1009E000A82EA81844C0853729F42F7EB22E2AE0FD
:1009F00030E025C0F22FF97FBF2E8F36C1F018F4FA
:100A0000883579F0B4C0803719F0883721F0AFC04D
:100A10002F2F2061B22EB4FE0DC08B2D8460B82E16
:100A200009C024FF0AC09F2F9660B92E06C028E097
:100A300030E005C020E130E002C020E132E0F80102
:100A4000B7FE07C060817181828193810C5F1F4F67
:100A500006C06081718180E090E00E5F1F4FA401AD
:100A60000E945307A82EA818FB2DFF77BF2EB6FEB5
:100A70000BC02B2D2E7FA51450F4B4FE0AC0B2FC7F
:100A800008C02B2D2E7E05C07A2C2B2D03C07A2C6E
:100A900001C0752C24FF0DC0FE01EA0DF11D8081FF
:100AA000803311F4297E09C022FF06C07394739429
:100AB00004C0822F867809F0739423FD13C020FFB1
:100AC00006C05A2C731418F4530C5718732C731453
:100AD00068F4B70180E290E02C870E9421077394AC
:100AE0002C85F5CF731410F4371801C0312C24FF76
:100AF00012C0B70180E390E02C870E9421072C856B
:100B000022FF17C021FF03C088E590E002C088E7FC
:100B100090E0B7010CC0822F867859F021FD02C009
:100B200080E201C08BE227FD8DE2B70190E00E94D8
:100B30002107A51438F4B70180E390E00E94210753
:100B40005A94F7CFAA94F401EA0DF11D8081B70100
:100B500090E00E942107A110F5CF332009F451CE77
:100B6000B70180E290E00E9421073A94F6CFF701A6
:100B70008681978102C08FEF9FEF2C96E2E10C9463
:100B8000CD070F931F93CF93DF93869F8001879F9D
:100B9000100D969F100D1124C8010E94DD05EC0177
:100BA000009729F0A80160E070E00E940F07CE01D5
:100BB000DF91CF911F910F910895CF93DF938230F2
:100BC000910510F482E090E0E0916601F0916701F8
:100BD00020E030E0A0E0B0E0309739F14081518171
:100BE00048175907B8F04817590771F48281938163
:100BF000109729F013969C938E9312972CC0909384
:100C000067018093660127C02115310531F0421735
:100C1000530718F0A901DB0101C0EF019A01BD01E2
:100C2000DF010280F381E02DD7CF21153105F9F0E6
:100C3000281B390B2430310580F48A819B81611592
:100C4000710521F0FB019383828304C090936701B7
:100C500080936601FE01329644C0FE01E20FF31F4D
:100C60008193919322503109398328833AC020918E
:100C7000640130916501232B41F4209102013091F0
:100C800003013093650120936401209100013091AC
:100C900001012115310541F42DB73EB74091040102
:100CA00050910501241B350BE0916401F091650121
:100CB000E217F307A0F42E1B3F0B2817390778F033
:100CC000AC014E5F5F4F2417350748F04E0F5F1F92
:100CD00050936501409364018193919302C0E0E0D9
:100CE000F0E0CF01DF91CF910895CF93DF9300978C
:100CF00009F487C0FC01329713821282C091660109
:100D0000D0916701209781F420813181280F391F0C
:100D100080916401909165018217930779F5F093B2
:100D20006501E09364016DC0DE0120E030E0AE17A4
:100D3000BF0750F412964D915C9113979D01411598
:100D4000510509F1DA01F3CFB383A28340815181C8
:100D5000840F951F8A179B0771F48D919C911197B1
:100D6000840F951F02969183808312968D919C919A
:100D70001397938382832115310529F4F09367013A
:100D8000E09366013EC0D9011396FC93EE9312974F
:100D90004D915D91A40FB51FEA17FB0779F480818F
:100DA0009181840F951F0296D90111969C938E9381
:100DB0008281938113969C938E931297E0E0F0E0EA
:100DC0008A819B81009719F0FE01EC01F9CFCE01D9
:100DD000029628813981820F931F209164013091FE
:100DE00065012817390769F4309729F410926701D3
:100DF0001092660102C013821282D0936501C093E3
:100E00006401DF91CF910895FC010590615070401D
:100E10000110D8F7809590958E0F9F1F0895DC01E3
:100E200001C06D9341505040E0F70895FC016150BE
:100E3000704001900110D8F7809590958E0F9F1FFC
:100E400008950F931F93CF93DF93182F092FEB0172
:100E50008B8181FD03C08FEF9FEF20C082FF10C008
:100E60004E815F812C813D81421753077CF4E881DC
:100E7000F9819F012F5F3F4F39832883108306C07C
:100E8000E885F985812F0995892B29F72E813F81E6
:100E90002F5F3F4F3F832E83812F902FDF91CF9184
:100EA0001F910F910895FA01AA27283051F120319E
:100EB00081F1E8946F936E7F6E5F7F4F8F4F9F4FEE
:100EC000AF4FB1E03ED0B4E03CD0670F781F891F30
:100ED0009A1FA11D680F791F8A1F911DA11D6A0FFE
:100EE000711D811D911DA11D20D009F468943F91B1
:100EF0002AE0269F11243019305D3193DEF6CF01B0
:100F00000895462F4770405D4193B3E00FD0C9F775
:100F1000F6CF462F4F70405D4A3318F0495D31FDE2
:100F20004052419302D0A9F7EACFB4E0A695979535
:100F3000879577956795BA95C9F70097610571050B
:100F400008959B01AC010A2E069457954795379555
:100F50002795BA95C9F7620F731F841F951FA01DAF
:100F600008952F923F924F925F926F927F928F924D
:100F70009F92AF92BF92CF92DF92EF92FF920F9328
:100F80001F93CF93DF93CDB7DEB7CA1BDB0B0FB632
:100F9000F894DEBF0FBECDBF09942A8839884888EF
:100FA0005F846E847D848C849B84AA84B984C88485
:100FB000DF80EE80FD800C811B81AA81B981CE0F7C
:100FC000D11D0FB6F894DEBF0FBECDBFED01089561
:040FD000F894FFCFC3
:100FD4000000680120002A2A2A2A2A535441525424
:100FE400494E472050524F4752414D2A2A2A2A2A15
:100FF400004C4544207374617475733A2025640A67
:10100400005374617274696E672074696D6572004F
:101014004F766572666C6F77207472696767657264
:0810240065643A2025640A000E
:00000001FF
